:020000040800F2
:10000000B0060020910100089918000801170008A7
:100010009518000881040008B91B000800000000C2
:10002000000000000000000000000000AD1B000800
:1000300085040008000000009D180008B11B00089E
:10004000AB010008AB010008AB010008AB010008E0
:10005000AB010008AB010008AB010008AB010008D0
:10006000AB010008AB010008AB010008AB010008C0
:10007000AB010008AB010008AB010008AB010008B0
:10008000AB010008AB010008AB010008AB010008A0
:10009000AB010008AB010008AB010008AB01000890
:1000A000AB010008AB010008AB010008AB01000880
:1000B000AB010008AB010008AB010008AB01000870
:1000C000AB010008AB010008AB010008AB01000860
:1000D000AB010008AB010008AB010008AB01000850
:1000E000AB010008AB010008AB01000800F002F80A
:1000F00000F03FF80AA090E8000C82448344AAF183
:100100000107DA4501D100F034F8AFF2090EBAE880
:100110000F0013F0010F18BFFB1A43F0010318473B
:10012000CC240000EC240000103A24BF78C878C129
:10013000FAD8520724BF30C830C144BF04680C60ED
:10014000704700000023002400250026103A28BF35
:1001500078C1FBD8520728BF30C148BF0B60704739
:10016000642900F07D80002070471FB51FBD10B5C9
:1001700010BD00F04AF91146FFF7F7FF01F0DEFD70
:1001800000F068F903B4FFF7F2FF03BC00F070F968
:100190000948804709480047FEE7FEE7FEE7FEE71B
:1001A000FEE7FEE7FEE7FEE7FEE7FEE70448054957
:1001B000054A064B70470000B51B0008ED0000081B
:1001C000B0000020B0060020B0020020B0020020E5
:1001D0000FB41CB5074B06AA7B44694600900598EE
:1001E00000F0FBF80020694600F00AF91CBC5DF83D
:1001F00014FB0000250200002DE9F0410E460446E4
:10020000002020622046E168884730B3252805D0C9
:10021000D4E901219047206A401CF2E7E1682046BA
:1002200000278847050018D0A5F14100192802D8F9
:1002300020354FF400673246294620462760FFF7F5
:100240008FFF40B1012804D0F61D26F007060836BE
:10025000D8E7361DD6E72846DAE7206ABDE8F08100
:100260002DE9F0410646002410687529314616A58F
:1002700010D0AFF30080002802DA404213A507E057
:1002800031688A0701D512A502E0490704D511A5F6
:10029000012401E0AFF3008000210A2206F12407C7
:1002A00009E0B0FBF2FCB0FBF2F302FB1C003030C3
:1002B00078541846491C0028F3D123462A46304674
:1002C000BDE8F04100F02AB8000000002D00000059
:1002D0002B0000002000000010B5431C02E010F8C5
:1002E000011B71B18107FAD14FF0013202C88C1A9B
:1002F0008C4314EAC211F9D0C01A0A0603D0C01EFA
:1003000010BDC01A10BD0A0401D0801E10BD090224
:10031000FCD0401E10BD7047704770472DE9F04774
:100320000D4699469246044600F124080168880665
:1003300004D5E06921F01001216000E00120A8420D
:1003400001DD471B00E00027A1697A1902EB0900D3
:10035000081AA0612078C00602D42046AFF30080BE
:10036000002608E0D4E901211AF806009047206A27
:10037000401C761C20624E45F4DB2078C0060AD56E
:100380002046AFF3008006E0D4E9012130209047F9
:10039000206A401C2062381EA7F10107F4DC07E048
:1003A000D4E9012118F805009047206A401C20621A
:1003B000281EA5F10105F3DC2046AFF3008020786C
:1003C000000602D50220BDE8F0870120FBE700000F
:1003D00001694A1C02610878704700B58FB0CDE909
:1003E00001310021059105497944CDE903101146F9
:1003F0006846FFF701FF0FB000BD0000E5FFFFFFFB
:100400000A6802F8010B0A607047754600F02CF884
:10041000AE4605006946534620F00700854618B0F1
:1004200020B5FFF7C3FEBDE820404FF000064FF0B7
:1004300000074FF000084FF0000BAC46ACE8C009D5
:10044000ACE8C009ACE8C009ACE8C00921F007017C
:100450008D46704710B50446AFF300802046BDE8D6
:100460001040FFF78FBE00000048704728000020B2
:1004700001491820ABBEFEE72600020070470000CD
:10048000FEE7000070470000B0B5044600F032F906
:10049000054640F21800C2F200000078611C18BF47
:1004A000044400BF00F026F9401BA042FAD3B0BDBF
:1004B0002DE9F04F82B00E68002E00F0038140F26B
:1004C0000C4C41F200424FF6FF7EC4F2010CC4F224
:1004D0000102042700240123C1F2100E4FF0000A8C
:1004E0004FF00009904208BF0327009745E000BF86
:1004F000012704F00C030F229A402BEA020207FAAC
:1005000003F34FEA9A051A4346F82520D1F804B0C0
:1005100040F20045C4F201055FEACB322A6854BFBD
:1005200022EA080242EA08022A606A685FEA8B331C
:1005300054BF22EA080242EA08026A605FEACB235B
:10054000AA6854BF22EA080242EA08025FEA8B2343
:10055000AA60DCF800204FF0010354BF22EA080231
:1005600042EA0802CCF800200E680AF1010A36FAC5
:100570000AF204F1040400F0A58003FA0AF816EA6E
:10058000080FF1D04E68764512DC122E56D8DFE8FF
:1005900006F0350B45495555555555555555555545
:1005A0005555554D510000BFD1F80C9046E000BFA5
:1005B0004FF6FF72C1F2210296420FDC0022C1F217
:1005C000110296421AD00022C1F21202964215D0B0
:1005D0000022C1F22102964210D02FE00022C1F287
:1005E000220296420AD00022C1F23102964205D080
:1005F0000022C1F23202964220D100BF8A684AB17D
:10060000012A14BFC0F81480C0F810804FF0080908
:1006100014E000BF4FF0040910E000BFCA6802F107
:1006200008090BE04FF0000908E000BFCA6802F1BA
:10063000040903E0CA6802F10C0900BF224606461D
:10064000BAF1080F24BF203A043637680F259540C9
:1006500027EA050509FA02F22A433260CA79D2066E
:100660007FF582AF41F21803C4F202031A6842F028
:1006700001021A601A6802F001020192019A40F226
:100680000042C4F20102A2F57E762AF0030256F877
:1006900002B040F60002C4F20102904210D040F6CF
:1006A0000042C4F2010290423FF422AF41F2000244
:1006B000C4F20102009F904208BF022719E700BF61
:1006C000002716E702B0BDE8F08F00008068084000
:1006D00018BF012070470000C26802EA010391437D
:1006E00041EA034101617047002A08BF0904016122
:1006F0007047000040F2A800C2F200000068704796
:1007000040F2180040F2A801C2F20000C2F200015B
:1007100000780A68104408607047000080B542F213
:100720000000C4F20200016841F0100101600320E2
:1007300000F07AF80F2000F005F800F027F800200C
:1007400080BD000070B540F21806C2F2000640F20B
:1007500020013278C2F200014FF47A730968B3FBCA
:10076000F2F20446B1FBF2F1084600F0B3FF0F2CA1
:100770004FF0010508D838B94FF0FF30214600226C
:10078000002500F025F87460284670BD82B041F263
:100790001800C4F202000168022241F00101016068
:1007A000016801F0010101910199416841F0805116
:1007B0004160406800F08050009000980420C4F22E
:1007C0000100016862F31A61016002B07047000025
:1007D00010B54EF60C5CCEF2000CDCF80030C3F322
:1007E000022E8EF00704042C28BF0424BEF103035C
:1007F0004FF0FF3E0EFA04F438BF0023A1439940A6
:100800000EFA03F39A43114300F00F0200F1604324
:100810000901043A03F564436244002848BF02F129
:100820000C03197010BD00004EF60C51CEF2000101
:100830000A684FF6FF031A4060F30A2242F0806014
:1008400040F0FD70086070472020C4F20E200121A6
:100850000160704780B5012818D0022836D01028D2
:1008600032D141F20401C4F202010A6851F8040CC9
:10087000C00129D5C2F383402DA3185CD2033DD417
:1008800040F60012C0F23D02504343E041F2040042
:10089000C4F20200C16940F202320A40B2F5817F1F
:1008A00004BF4FF4004080BD01F44071B1F5407FBA
:1008B0001CD0B1F5007F07D1006A49F6404180079E
:1008C00001EAE07080BD00BF002080BD00F0A0F90B
:1008D00041F20401C4F2020109680222C1F381312C
:1008E00002EB4101B0FBF1F080BD00BF50F8040CF9
:1008F0004FF22441800301EAE07080BD0A6810A332
:10090000C2F340429A5C41F20023C0F27A03B3FB87
:10091000F2F250430968490248BF80BD4AF6AB2154
:100920004000CAF6AA21A0FB0101480880BD00BF13
:1009300002030405060708090A0B0C0D0E0F101020
:10094000010200002DE9F04182B00446007841F236
:100950001C06C007C4F202064AD0306810F0805866
:1009600008D1306840F080503060306800F080502E
:100970000190019847F20007C4F200073868C005EB
:1009800012D4386840F480703860FFF7B3FE054633
:100990003868C00508D4FFF7ADFE401B6428F7D9BE
:1009A000032002B0BDE8F081706810F4407012D0EE
:1009B000616801F4407188420DD0706840F2404295
:1009C000C4F24222012320F4407113600023C007C7
:1009D000136071602AD17068616820F44070084328
:1009E000B8F1000F706003D1306820F080503060A3
:1009F0002068810707D556F8181CA26821F44041E9
:100A0000114346F8181CC00604D4002002B0BDE80B
:100A1000F08100BF56F8180CE16820F4800008430C
:100A200046F8180C002002B0BDE8F081FFF762FE26
:100A3000054641F2883700BF70688007CBD4FFF7C6
:100A400059FE401BB8424FF00300F5D9EBE7000018
:100A50002DE9F04381B0002800F0858042F20008C3
:100A6000C4F202080446D8F800000D4600F0070062
:100A700088420CD2D8F8000020F007002843C8F8BC
:100A80000000D8F8000000F00700A8426BD12068F1
:100A900041F204098107C4F2020917D5410705D5BF
:100AA000D9F8001041F4E061C9F80010010705D53C
:100AB000D9F8001041F46051C9F80010D9F80010BD
:100AC000A26821F0F0011143C9F80010C00741D11C
:100AD000D8F8000000F00700A8420CD9D8F80000B0
:100AE00020F007002843C8F80000D8F8000000F004
:100AF0000700A84237D12068410707D5D9F8001070
:100B0000E26821F4E0611143C9F80010000708D53C
:100B1000D9F80000216920F4605040EAC100C9F80A
:100B20000000D9F8002002F00C00082841F2002053
:100B3000C0F27A0050D142F2BA53C2F38341C0F6F8
:100B40000003595CD2033BD440F60010C0F23D00D4
:100B5000484341E0606802280AD001282AD159F8A8
:100B6000041C890308D4012001B0BDE8F08300BF54
:100B700059F8041C8901F6D5D9F8001021F00301B9
:100B80000843C9F80000FFF7B5FD064641F2883773
:100B9000D9F80000616800F00C00B0EB810F97D02D
:100BA000FFF7A8FD801BB842F2D9032001B0BDE8D1
:100BB000F08300BF59F8041C8907D4D5DCE700BFD7
:100BC000D9F8002042F2A053C2F34042C0F600031D
:100BD0009A5C4843B0FBF2F0D9F8001042F2A252FE
:100BE000C1F30311C0F60002515C40F2200220FA6A
:100BF00001F140F21C00C2F200000068C2F20002E3
:100C00001160FFF79FFD002001B0BDE8F0830000F8
:100C100040F2200041F20401C2F20000C4F20201DD
:100C20000068096842F2B252C1F3C221C0F6000264
:100C3000515CC840704700002DE9F04182B00028A7
:100C400068D00446007841F20006C007C4F20206EC
:100C500025D0706800F00C0004281BD0706800F0EC
:100C60000C00082802D17068C00313D46068002803
:100C700000F06881B0F5A02F00F07C81B0F5803FD6
:100C800000F07C81306820F480303060306820F4DF
:100C9000802076E13068800301D56068D0B3207889
:100CA000800718D5706810F00C0F07D0706800F03E
:100CB0000C0008286ED17068C0036BD430688007C0
:100CC00002D52069012825D13068616920F0F8003B
:100CD00040EAC1003060207800071FD42078400728
:100CE00032D4E56995B1706800F00C00082840F036
:100CF0008F80012D0ED07068216A00F480328A4204
:100D000008D1616A00F47010884203D1002002B05B
:100D1000BDE8F081012002B0BDE8F081A0690028A3
:100D200062D00020C4F242200121C0F88014FFF7F5
:100D3000E1FC0546706A800700F18C80FFF7DAFC61
:100D4000401B0228F6D92AE1F06910F0805808D13A
:100D5000F06940F08050F061F06900F08050009040
:100D6000009847F20007C4F200073868C00529D48C
:100D7000386840F480703860FFF7BCFC054600BF5F
:100D80003868C0051ED4FFF7B5FC401B6428F7D9AE
:100D900005E100BF2069002840F20000C4F24220B3
:100DA00000F0828001210160FFF7A4FC054600BF2E
:100DB000306880073FF588AFFFF79CFC401B022896
:100DC000F6D9ECE0E068002800F08080052800F00B
:100DD0009780012800F09880306A20F0010030628E
:100DE000306A20F0040092E00020C4F2422000218A
:100DF000C0F88014FFF77EFC054600BF706A8007CC
:100E00007FF56CAFFFF776FC401B0228F6D9C6E0F1
:100E10000027C4F2422700203866FFF76BFC022D42
:100E200005460BD13068800140F1BE80FFF762FCBF
:100E3000401B02284FF00300F4D968E730688001B6
:100E40007FF564AFFFF756FC401B02284FF003000C
:100E5000F4D95CE740F22000C2F20000006844F6DA
:100E6000D351C1F26201A0FB0101480A019000BF09
:100E700000BF0198411E002801913FF42FAF00BF31
:100E80000198411E002801913FF428AF00BF01984E
:100E9000411E002801913FF421AF00BF0198411E7F
:100EA00000280191E4D119E700210160FFF722FC3D
:100EB000054600BF306880077FF50DAFFFF71AFCCD
:100EC000401B02284FF00300F4D920E7306A20F0DD
:100ED00001003062306A20F004003062FFF70AFC43
:100EE000054641F2883700BF306A800720D5FFF7FA
:100EF00001FC401BB8424FF00300F5D907E700BFE3
:100F0000306A40F004003062306A40F00100306224
:100F1000FFF7F0FB054641F2883700BF306A8007D3
:100F200006D4FFF7E7FB401BB842F7D937E000BF14
:100F3000B8F1000F7FF4D5AEF06920F08050F06179
:100F4000CFE600BF306820F480303060306820F495
:100F500080203060FFF7CEFB054600BF306880037D
:100F60007FF59DAEFFF7C6FB401B64284FF00300E2
:100F7000F4D9CCE6306840F480203060306840F42A
:100F800080303060FFF7B6FB054600BF3068800355
:100F90003FF585AEFFF7AEFB401B6428F6D9032072
:100FA00002B0BDE8F08100BF206AB0F5803F05D1F6
:100FB0007168A26821F40031114371607168626A3E
:100FC00021F4741111430843706001203866FFF763
:100FD00091FB0446306880013FF598AEFFF78AFB2D
:100FE000001B02284FF00300F4D990E62DE9F047EA
:100FF000064600284FF0010000F0A5800C460029AD
:1010000000F0A18030684168490700F1D98091461D
:101010008269C169836948F6890583EA02073F044A
:101020001CBFC1691A4689B241EA02414BF2C5327E
:10103000C9F2A212A1FB0223DA0A4FF4616302FB98
:1010400013139FB26F437D0D65702D01A5EB5757AC
:10105000A3EB870345F28017C0F20107B942A370E2
:1010600036D344F20753CCF22E23A1FB03374AF6C2
:10107000AB23CAF6AA23A2FB03352B0903EB4303D8
:10108000A2EBC3022270026A406A4FEA174880B29C
:1010900040EA0240451A98BF4FF0FF35421C4AF61D
:1010A0008062CFF6FE7208FB021A08BF0546FFF702
:1010B00021FB074630684168890647D4FFF71AFBD1
:1010C000C01BB0F57A7FF5D90120BDE8F08700BFDD
:1010D0002270B9F1000F00F09F802178CD26A1F198
:1010E0000A03DFB27743FD0A05EB85056278A3EBBF
:1010F00045030125A07805EBD727092988BF43EAD6
:1011000007112170A2F10A01CBB27343DF0A07EB8A
:101110008707A1EB470105EBD323092A88BF41EAE2
:101120000312A0F10A016270CAB27243D30A03EB40
:101130008303A1EB430105EBD222092888BF41EAD2
:101140000210A0700020BDE8F08700BF416841F0A8
:10115000100141604FEA1A4181611FFA8AF1C161B1
:10116000416821F010014160FFF7C4FA074600BF53
:1011700030684068800609D4FFF7BCFAC01BB0F5A0
:101180007A7FF5D90120BDE8F08700BF681C11D037
:101190005544FFF7AFFA074630684168890613D413
:1011A000FFF7A8FAC01BB0F57A7F4FF00100F3D922
:1011B000C9E700BF30464FF0FF3100F0C7FC18B35D
:1011C0000120BDE8F08700BF416841F01001416097
:1011D000290C0162A9B24162416821F0100141600D
:1011E000FFF788FA074600BF3068406880060BD4D6
:1011F000FFF780FAC01BB0F57A7F4FF0010088BF7F
:10120000BDE8F087F0E700BF3046414600F048FBFC
:10121000B9F1000F7FF461AF0020BDE8F087000056
:1012200070B500286AD00446407C20B900202074A4
:10123000204600F073F8022060742068416821F0B5
:1012400008014160FFF756FA064600BF206845686E
:10125000FFF750FA290705460ED4A81BB0F57A7F90
:10126000F4D9012504206074284670BDFFF742FAC6
:10127000401BB0F57A7FF4D8216848688006F5D520
:10128000486846F62C4240F0100048604868C4F2B6
:10129000000220F007004860A06818B1536823F0EE
:1012A00001035360136823F460731843106060688F
:1012B000421C06D101200125FFF7CCFA50B321686A
:1012C00001388A6822F00F0242EA10428A60CA6836
:1012D00060F30F02CA60486820F010004860FFF712
:1012E00009FA054620684068800609D4FFF702FA2B
:1012F000401BB0F57A7FF5D9B3E700BF012070BD80
:1013000040F201100025A4F80D000120E57360747F
:10131000284670BD04206074284670BD80B582B038
:10132000006842F60001C4F20001884202D002B017
:1013300080BD00BFFFF788FA41F21C00C4F2020032
:10134000016841F0006101600068012100F0006067
:101350000190019840F23C40C4F24220016002B08A
:1013600080BD0000F0B581B0044600284FF00100B8
:1013700018BF002902D101B0F0BD00BF207C0128B8
:101380004FF00200F7D0012323746074CB78BAB118
:10139000180900EB800003F00F0202EB40034878CD
:1013A0008A78070907EB870700F00F0000EB470773
:1013B000100900EB800002F00F0202EB400001E098
:1013C0004F788878022FDAB2E3736773A0730FD86F
:1013D00017237B4348F63967C3F6E307A3FB0737B8
:1013E000C7F3470C02F2CF7340F2D47E0CE000BF8B
:1013F00047F2D916FFB2C0F21406774302F5FA633A
:101400004FEAD74C40F2D27EC0B210449D0841F260
:101410007B4770446F431D0940F63E2600EB930066
:101420007543A0EB574000EB1540604482B242F296
:1014300093435A43A0EB12439BB25B0803EB124267
:101440009208A2EBC20210442268207308709169CE
:10145000D0699369002683EA01073F041CBFD06965
:10146000194680B240EA014045F69071C0F2010190
:1014700088421BD344F20751CCF22E21A0FB01126B
:10148000110C40F2A3225143A0EBC117FFF732F930
:10149000054600BF2068416889060DD4FFF72AF988
:1014A000401BB0F57A7FF5D920E000BF0121002074
:1014B0006174267401B0F0BD416841F010014160D3
:1014C000390C8161B9B2C161416821F010014160FC
:1014D000FFF710F9054600BF2068416889060BD464
:1014E000FFF708F9401BB0F57A7FF5D901200421F8
:1014F0006174267401B0F0BD016A406A80B240EAAE
:101500000140B84230D200F5803000F5A347FFF724
:10151000F1F8054620684168890607D4FFF7EAF824
:10152000401BB0F57A7FF5D9E0E700BF416841F094
:1015300010014160390C0162B9B24162416821F089
:1015400010014160FFF7D6F8054620684068800624
:101550000AD4FFF7CFF8411B0120B1F57A7F4FF095
:101560000401F2D9A4E700BF0020012161742674B0
:1015700001B0F0BD70B5044600284FF0010018BF5F
:10158000002901D170BD00BF207C01284FF002006E
:1015900008BF70BD012323746074087802B3020988
:1015A00002EB820200F00F0000EB4200C0B24FF4E9
:1015B000616250434A788978130903EB830302F090
:1015C0000F0202EB4302D2B2C2EB021200EB820026
:1015D0000A0902EB820201F00F0101EB420108E06F
:1015E0004FF4616250434A788978C2EB021200EBF3
:1015F0008200C9B24618FFF77DF8054620684168A9
:10160000890607D4FFF776F8401BB0F57A7FF5D945
:101610001AE000BF416841F010014160310C816166
:10162000B1B2C161416821F010014160FFF762F879
:10163000054600BF2068416889060BD4FFF75AF8B9
:10164000401BB0F57A7FF5D9012004216174002197
:10165000217470BD416821F005014160016A406A52
:1016600080B240EA0140B0422ED200F5803000F551
:10167000A346FFF73FF8054620684168890607D46E
:10168000FFF738F8401BB0F57A7FF5D9DCE700BFEB
:10169000416841F010014160310C0162B1B2416218
:1016A000416821F010014160FFF724F8054600BFB2
:1016B00020684068800607D4FFF71CF8401BB0F58F
:1016C0007A7FF5D9C0E700BF0020012161740021B5
:1016D000217470BD411E0020B0EB116F1CBF0120B2
:1016E00070474EF21002CEF2000251604EF62351C6
:1016F000CEF20001F0230B7007219060116070475B
:10170000FEE700002DE9F04385B041F21800C4F275
:101710000200016840F6000541F004010160016823
:10172000C4F2010501F0040101910199016801ACC5
:1017300041F00801016001684FF4807801F0080170
:101740000191019901684FF0010941F01001016018
:101750000068002600F01000019001980327284639
:101760002146CDF80480CDF8089003960497FEF743
:101770009FFE4FF48060CDE9010928462146CDE95E
:101780000367FEF795FE4FF40070CDE90109284686
:101790002146CDE90367FEF78BFE28464FF4007122
:1017A0000022FEF7A1FF202005F58065CDE90109A3
:1017B00028462146CDE90367FEF77AFE4020CDE9B1
:1017C000010928462146CDE90367FEF771FE802016
:1017D000CDE9010928462146CDE90367FEF768FEF9
:1017E00028462146CDE90189CDE90367FEF760FE71
:1017F000332000F0E3F9322000F0E0F9282000F077
:10180000DDF9012000F0DAF90C2000F0D7F906200C
:1018100000F0D4F905B0BDE8F0830000012000F02D
:10182000CDB90000002918BF403040F08000C0B2A0
:1018300000F0C4B970B584B00DF1050402460AA1E8
:101840002046FEF7C5FC9DF8050058B1002600258E
:10185000A05D00F013FA01352046EEB2FEF73CFD24
:10186000B042F5D804B070BD2564000070B50446E0
:101870000078002808BF70BD00260025A05D00F09C
:10188000FDF901352046EEB2FEF726FDB042F5D84F
:1018900070BD0000FEE70000FEE70000704700009A
:1018A0002DE9F043427B837B90F80FC0002900F0C4
:1018B000D380012901F0010E18D1BEF1000F00F014
:1018C000CB800C2A00F2C8800121914041F2AA5736
:1018D000394200F0B7801F2BC0F0B9800C2A40F0CD
:1018E000B9800CF1010C0122B5E000BF45F6294991
:1018F00045F628474DF20B7821F00101012441F211
:10190000AA55CCF28F29C0F28F27C0F2A30802E0BB
:1019100001330239D1D00C2A16D804FA02F62E422D
:1019200008D01E2B0BD90C2A0CD10CF1010C012272
:1019300009E000BF16F4256F1ED01D2B02D801331D
:1019400002E000BF013201230C2AE2D804FA02F6B9
:101950002E4209D01F2BDBD30C2A0AD10CF1010C2B
:1019600001220123D5E700BF16F4256F0CD01E2BF2
:10197000CED301320123CCE7022AE5D11B2B0BD8B1
:1019800001330222E0E700BF022AC2D11C2B0DD294
:1019900001330222BDE700BF1D2B0DD01C2B0FD140
:1019A0005FEA8C7216D000222FE000BF0AD01D2BF8
:1019B0000ED101230322ACE701230322C4E700BFB9
:1019C0000222C1E75FEA8C720ED000222FE000BF36
:1019D00002229EE71FFA8CF202FB09F24FEAB203E1
:1019E000BB420BD9012210E01FFA8CF202FB09F274
:1019F0004FEAB203BB4213D9012218E04FEA321278
:101A000042454FF0000238BF0122002A4FF0020287
:101A10004FF01D0308BF032208BF012394E700BF56
:101A20004FEA321242454FF0000238BF0122002A2D
:101A30004FF002024FF01D0308BF032208BF01232D
:101A400067E700BF11F4256F48D01E2B02D2013387
:101A500002E000BF01320123D1B2022980F80FC099
:101A6000427383730ED81722514348F63962C3F686
:101A7000E302A1FB0212C2F347010CF2CF7240F263
:101A8000D47709E047F2D917C0F2140779430CF56F
:101A9000FA62C90C40F2D277DBB248F21F566344B7
:101AA000C5F2EB163B44A2FB066503EB9202A2EBE8
:101AB000551202EBD512114444F62512C2F292429D
:101AC000A1FB0223CA1A03EB52029308DB00A3EB2B
:101AD0009202891A0173BDE8F08300BF022ABBD1CC
:101AE0001C2B03D201330222B6E700BF04D01D2B0A
:101AF00008D101230322AFE75FEA8C7104D00121F2
:101B00001CE000BF0222A7E745F629421FFA8CF12C
:101B1000CCF28F224A4345F628434FEAB201C0F285
:101B20008F2399424FF0000108D84DF20A734FEA13
:101B30003212C0F2A3039A4288BF012102221D2360
:101B4000002918BF032218BF012385E770B50D4691
:101B50000446FEF7CFFD064620684168890607D493
:101B6000FEF7C8FD801BB0F57A7FF5D9012070BD66
:101B7000416841F010014160290C0162A9B2416243
:101B8000416821F010014160FEF7B4FD054600BF39
:101B900020684068800607D4FEF7ACFD401BB0F516
:101BA0007A7FF5D9012070BD002070BD704700001C
:101BB000FEF7A6BD70470000FEE7000070B540F6D6
:101BC0000004C4F20104054620464FF4807100224F
:101BD000FEF78AFD40F20006C2F20006B0683188C6
:101BE000C5F30012FEF780FDF0687188C5F340125E
:101BF000FEF77AFD3069B188C5F38012FEF774FDF7
:101C00007069F188EA09FEF76FFD20464FF48061A4
:101C10000122FEF769FD0120FEF736FC20464FF455
:101C200080610022FEF760FDB068318805F0010296
:101C3000FEF75AFDF0687188C5F34002FEF754FDC7
:101C40003069B188C5F38002FEF74EFD7069F188F6
:101C5000C5F3C002FEF748FD20464FF48061012223
:101C6000FEF742FD0120FEF70FFC20464FF4806195
:101C70000022BDE87040FEF737BD000070B540F6A9
:101C80000004C4F20104054620464FF4807101228D
:101C9000FEF72AFD40F20006C2F20006B068318865
:101CA000C5F30012FEF720FDF0687188C5F34012FD
:101CB000FEF71AFD3069B188C5F38012FEF714FDF6
:101CC0007069F188EA09FEF70FFD20464FF4806144
:101CD0000122FEF709FD0120FEF7D6FB20464FF456
:101CE00080610022FEF700FDB068318805F0010236
:101CF000FEF7FAFCF0687188C5F34002FEF7F4FCC9
:101D00003069B188C5F38002FEF7EEFC7069F18896
:101D1000C5F3C002FEF7E8FC20464FF480610122C3
:101D2000FEF7E2FC0120FEF7AFFB20464FF4806196
:101D30000022BDE87040FEF7D7BC000098B040F22A
:101D40008807C2F2000741F60960788041F203304B
:101D50000024F88017203C713872FEF7DFFCFFF793
:101D6000D1FC0A200E90012010211290CDE9131011
:101D700002250EA81194CDE90F44CDE90744CDE921
:101D800015541794FEF758FF20B1EFF3108072B688
:101D9000FEE700BF0F20CDE909054FF48060CDE9D3
:101DA0000C0409A800210B94FEF752FE20B1EFF3BA
:101DB000108072B6FEE700BF4FF400704FF00109CB
:101DC000069005A8CDF81490FEF7BCFD20B1EFF306
:101DD000108072B6FEE700BF41F21800C4F20200A4
:101DE000016840F6004441F0100101600168C4F24E
:101DF000010401F010010E910E99016804F580664E
:101E000041F0040101600168002201F004010E911B
:101E10000E9901684FF4005541F008010160006817
:101E20004FF4005100F008000E900E9830464FF02D
:101E3000000AFEF759FC20464FF48F510022FEF7AE
:101E400053FCA4F5806B58464FF460610022FEF706
:101E50004BFC0EA80DF1380880E82006022530461C
:101E600041461195FEF724FBF020CDE90E0A5846B5
:101E70004146CDF840A0FEF71BFB4FF48F500EA952
:101E800081E80106204641461195FEF711FB4FF40B
:101E900060600EA981E80106584641461195FEF79B
:101EA00007FB40F20110C0F201000E90A4F564415E
:101EB000384640F80C1F4FF0FF314FF48072C0E9F4
:101EC0000112FFF7ADF928B1EFF3108072B600BF31
:101ED000FEE700BF07F10C0509A928460122ADF86D
:101EE00024A08DF826A0FFF745FB28B1EFF3108062
:101EF00072B600BFFEE700BF0EA928460122FFF719
:101F000031FA28B1EFF3108072B600BFFEE700BFD0
:101F1000B91C284600220391FFF72CFB791D2846A7
:101F200000220091FFF71EFA14200026029001956E
:101F300004E000BFFFF772FC012600BF5846802175
:101F4000FEF7C4FB824658464021FEF7BFFB8146A0
:101F500058462021FEF7BAFB049058461021FEF7A0
:101F6000B5FBBAF1010F804606D1F5B2FFF756FC7A
:101F7000092D019D0AD00136F0B2032800F2CE806F
:101F8000DFE810F004001A00FA0028010020002108
:101F9000FFF748FC0FF27C50FFF768FC042001219A
:101FA000FFF740FC0FF28050FFF760FC4FF47A70AF
:101FB000FEF76AFAFFF732FC3878012803D10FF2F6
:101FC0007050FFF753FC04200021FFF72BFC03990E
:101FD00028460022FFF70AF8B878FFF72BFC42F2F8
:101FE000CE56C0F600063046FFF740FCF878FFF703
:101FF00021FC3046FFF73AFC3879FFF71BFC42F230
:10200000CA50C0F60000FFF731FC00200121FFF7A5
:1020100009FC7879062805D80FF2185151F82000EC
:10202000FFF724FC06200121FFF7FCFBF8790928C3
:1020300003D80020FFF7FEFBF879FFF7FBFB42F225
:10204000CC50C0F60000FFF711FCB879092803D87E
:102050000020FFF7EFFBB879FFF7ECFB42F2CC5022
:10206000C0F60000FFF702FC0298C0B2FFF7E2FBE7
:10207000387AFFF7DFFB42F2CA50C0F60000FFF7E4
:10208000F5FB6420FEF700FA3878012601287FF47A
:1020900055AF40F22400C2F200000078B9788842BF
:1020A00040D17878F97888423CD1FFF7B7FB03201C
:1020B0000021FFF7B7FB0FF29840FFF7D7FB5FFA5D
:1020C00088F0012840F0588120464FF48051FEF7F7
:1020D00003FB2820FEF7D8F920464FF48051FEF785
:1020E000FBFA1420FEF7D0F920464FF48051FEF79A
:1020F000F3FA2820FEF7C8F920464FF48051FEF786
:10210000EBFA4FF49670FEF7BFF900203870FFF736
:1021100085FBF0B20438042809D90FE73878012884
:10212000B7D000BFF0B2043804283FF607AFDFE8AD
:1021300000F0037391B1CF0000200021FFF772FB84
:102140000FF25040FFF792FBB878092803D800201F
:10215000FFF770FBB878FFF76DFB6420FEF794F98A
:10216000B9F1010F40F03681394611F8020FB0F194
:10217000170218BF421C37E100200021FFF752FB75
:102180000FF28030FFF772FB40F22400C2F2000031
:102190000078092807D80020FFF74CFB40F2240004
:1021A000C2F200000078FFF745FBC820FEF76CF98B
:1021B000BAF1010F00F0A880B9F1010F40F0A4803E
:1021C00040F22402C2F200021078B0F1170118BFE9
:1021D000411CAAE000200021FFF724FBC5A0FFF767
:1021E00045FB7878092803D80020FFF723FB78788F
:1021F000FFF720FBC820FEF747F9BAF1010F00F006
:102200009D80B9F1010F40F099807978B1F13B00E0
:1022100018BF481C9DE000BF00200021FFF702FB13
:10222000D8A0FFF723FBF878092803D80020FFF790
:1022300001FBF878FFF7FEFAC820FEF725F9B9F19F
:10224000010F40F0D980F878B0F13B0118BF411C74
:10225000DAE000BF00200021FFF7E4FAC5A0FFF795
:1022600005FBF879092803D80020FFF7E3FAF8798D
:10227000FFF7E0FAC2A0FFF7F9FAC820FEF704F969
:10228000B9F1010F40F0C880F879411C202808BF3F
:102290000121C9E000200021FFF7C4FAB2A0FFF736
:1022A000E5FAB879092803D80020FFF7C3FAB8790E
:1022B000FFF7C0FAC820FEF7E7F8B9F1010F40F0C8
:1022C000BB80B879411C0C2808BF0121B971BBE063
:1022D00000200021FFF7A6FAA0A0FFF7C7FA387A7E
:1022E000FFF7A8FAC820FEF7CFF8B9F1010F40F0C8
:1022F000B380387A632840F0C38000203872029897
:1023000001300290BEE000BFBAF1010F00F0AC80D6
:102310000498012840F0A88040F22402C2F2000292
:102320001078411E002808BF172138781170012845
:102330004FF002067FF402AEABE600BFBAF1010F28
:1023400008D00498012805D17978481E002908BFD3
:102350003B2078705FFA88F13878012906D101387E
:1023600018BF01203870FFF759FA8DE601284FF0A9
:1023700003067FF4E3AD8CE61E2500BF20464FF434
:102380008051FEF7A9F92820FEF77EF820464FF489
:102390008051FEF7A1F91420FEF776F820464FF49D
:1023A0008051FEF799F92820FEF76EF820464FF489
:1023B0008051FEF791F94FF49670FEF765F8013DF4
:1023C0002806DBD1019DF0B2043804287FF6AFAEB9
:1023D000B4E500BF049801285CD1394611F8020F1A
:1023E000421E002808BF17220A7001F10A000022CD
:1023F000FFF7C0F80426A1E50498012852D1F87827
:10240000411E002808BF3B21F9700399284600228D
:10241000FFF7B0F8052691E5049801284AD1F8792C
:10242000411E002808BF1F21F9710099284600228B
:10243000FEF798FF062681E50498012842D1B87975
:10244000013808BF0C20B871009928460022FEF719
:1024500089FF072672E500BF049801283AD1387A2F
:10246000002841D001380CE0BAF1010F3AD05FFAF0
:1024700088F0012836D1FFF7D1F9387857E700BF47
:1024800001303872009928460022FEF76BFF0826BB
:1024900054E500BF5FFA88F001284FF004067FF48E
:1024A0004DAD47E55FFA88F001284FF005067FF44F
:1024B00045AD3FE55FFA88F001284FF006067FF44E
:1024C0003DAD37E55FFA88F001284FF007067FF44D
:1024D00035AD2FE55FFA88F001284FF008067FF44C
:1024E0002DAD27E5387822E763203872029801384D
:1024F0000290C7E7416C61726D204D696E7574651D
:102500003A200000416C61726D20486F75723A206C
:1025100000000000444F4E4720484F2056414E20B7
:102520004E49454E000000004E484F4D20313400CA
:102530002A000000E0250008DC250008D02500085E
:10254000D8250008E8250008D4250008E42500085F
:102550005741524E494E47212121000053657420B6
:10256000596561723A200000536574204D6F6E7496
:10257000683A200053657420446174653A20000075
:1025800020202000536574204D696E757465733A80
:102590002000000053657420486F75723A200000D7
:1025A0000102000000000000000001020304060711
:1025B00008090000000001020304020304050607E5
:1025C00008090A0B0C0D0E0F101020002D003A0008
:1025D000545545004652490057454E004D4F4E0058
:1025E00053554E00534154005448550010260008DE
:1025F00000000020280000002801000838260008FC
:1026000028000020880600004401000800000000A7
:102610002000400080000001000C0140000C01403F
:10262000000C0140000C01400100000010000000FF
:082630000024F4000C0000007E
:04000005080000ED02
:00000001FF
